:020000023000CC
:100000000D940B810D941F810D941F810D941F8100
:100010000D941F810D941F810D941F810D941F81DC
:100020000D941F810D941F810D941F810D941F81CC
:100030000D941F810D941F810D941F810D941F81BC
:100040000D941F810D941F810D941F810D941F81AC
:100050000D941F810D941F810D941F810D941F819C
:100060000D941F810D9435870D941F810D94598730
:100070000D941F810D941F810D941F810D941F817C
:100080000D941F810D941F810D941F810D941F816C
:100090000D941F810D941F810D941F810D941F815C
:1000A0000D941F810D941F810D941F810D941F814C
:1000B0000D941F810D941F810D941F810D941F813C
:1000C0000D941F810D941F810D941F810D941F812C
:1000D0000D941F810D941F810D941F810D941F811C
:1000E0000D949D880D941F810D941F810D941F8187
:1000F0000D941F810D941F810D941F810D941F81FC
:100100000D941F810D941F810D941F810D941F81EB
:100110000D941F810D941F810D941F810D941F81DB
:100120000D941F810D941F810D941F810D941F81CB
:100130000D941F810D941F810D941F810D941F81BB
:100140000D941F810D941F810D941F810D941F81AB
:100150000D941F810D941F810D9493880D941F8120
:100160000D941F810D941F810D941F810D941F818B
:100170000D941F810D941F810D941F810D941F817B
:100180000D941F810D941F810D941F810D941F816B
:100190000D941F810D941F810D941F810D941F815B
:1001A0000D941F810D941F810D941F810D941F814B
:1001B0000D941F810D941F810D941F810D941F813B
:1001C0000D941F810D941F810D941F810D941F812B
:1001D0000D941F810D941F810D941F810D941F811B
:1001E0000D941F810D941F8158426A019187988751
:1001F000C187E987D6879A87FC870D9498870D94E5
:100200009A870D94C1870D9491870D94FC870D9466
:10021000D6870D94E98711241FBECFEFDFE5DEBF3F
:10022000CDBF01E00CBF12E2A0E0B0E201C01D9220
:10023000AC36B107E1F70F940C840D94C4890D948A
:1002400000803BB78BBFFB0186913BBF08953BB756
:100250008BBFFB01879196913BBF089542E097C009
:1002600041E095C08093C00188278093C1018093AD
:10027000C20147E07CD0CB0108958093C40148E0DF
:1002800076C08091D00108953BB748E10D94CC81B0
:100290003BB74AE10D94CC813BB7882799278BBFA8
:1002A00040E20D94CC813BB78BBFCB0142E20D9471
:1002B000CC813BB70B0143E20D94CC81EE27FF27A5
:1002C00019BEDC0143E24093CA0150E02DE90D90D4
:1002D0001D9020933400E89532965A95C1F7112469
:1002E00008953BB76BBFFA0119BEDC0140E04093B3
:1002F000CA0150E0879197918D939D935A95D1F7BC
:100300003BBF08953BB78BBFCB0144E20D94CC813A
:100310003BB78BBFCB0145E20D94CC813BB746E2A6
:100320000D94CC813BB78BBFCB014AE20D94CC81BD
:100330003BB78BBFCB014CE20D94CC813BB78BBF5D
:10034000CB014DE20D94CC8148E311C049E30FC0CD
:1003500028ED2093340021E02093CC0108952091D2
:10036000CF0127FDFCCF22272093CA010895409397
:10037000CA0128ED31E0209334003093CB01609125
:10038000C4017091C5018091C60199270895FC01AF
:100390004093CA0184910895FC014093CA012DE95C
:1003A00020933400E89511243BBF08959C01262733
:1003B000622F62956227062E669566956025062E49
:1003C000669560256770022E232F669507946795C2
:1003D000302D26270694679530252627C9010895D4
:1003E000809103228823E1F3F89480910120909179
:1003F0000422909301209091032291509093032224
:1004000078940895F8949091022091110DC08093F2
:10041000052291E09093022090910020913011F4F8
:100420008093A008789408957894ECCF0F94F0818D
:10043000382F0F94F081282FC9010895AF92BF92F1
:10044000CF92DF92EF92FF920F931F93CF93DF93A0
:100450001F92CDB7DEB77C01262F5A01A89543E045
:10046000C42E40E2D42E00E010E00E151F0528F443
:1004700029830F94F081298101C08FEFF6018193C8
:100480006F010F5F1F4F0115F2E01F0771F7253451
:10049000B1F4A70163E070E2F501808191810F94CE
:1004A000D686F50100811181228133810E0D1F1D39
:1004B000211D311D008311832283338334C02634F0
:1004C00011F0253571F5F50180819181A281B3810B
:1004D000F694E794AC01BD014E0D5F1D611D711DC9
:1004E0004083518362837383263461F4BC01CD0160
:1004F000660F771F881F991F21E043E050E20F9499
:100500001B8611C0253579F483E090E20F945E815B
:100510000F9444810F94AF810F9448810F94AF8161
:1005200002C08FE301C08DE00F90DF91CF911F914A
:100530000F91FF90EF90DF90CF90BF90AF90089514
:100540009F92AF92BF92CF92DF92EF92FF920F9362
:100550001F93CF93DF937C01962EEA0185E4681305
:1005600016C0A70163E070E2888199810F94A0868C
:1005700088819981AA81BB818E0D9F1DA11DB11D0E
:1005800088839983AA83BB83C3E0D0E255C086E405
:10059000681731F085E5681719F080E5681352C0D7
:1005A00088819981AA81BB81880F991FAA1FBB1FCF
:1005B00088839983AA83BB836701A12CB12C86E42D
:1005C000981207C0688179818A819B810F9421816B
:1005D0000EC085E5981205C0888199810F943081FD
:1005E00006C080E598120AC088810F942E81F5011B
:1005F000ED5FFF4D80838FEFA81AB80A0F94AF818B
:10060000088119812A813B810F5F1F4F2F4F3F4F78
:10061000088319832A833B8381E0C81AD10879F6BD
:100620003695279517950795088319832A833B8369
:10063000ABCF89910F940282CE01835090428E15E8
:100640009F05BCF3DF91CF911F910F91FF90EF9029
:10065000DF90CF90BF90AF909F9008958F929F9220
:10066000AF92BF92CF92DF92EF92FF920F931F93C0
:10067000CF93DF936B017C0149015A0100E012E046
:10068000C0E0D0E01FC0011582E0180761F4B70197
:10069000A60183E090E20F94718182E0D80EE11C04
:1006A000F11C00E010E0F801ED5FFF4D6081CE012C
:1006B0000F94D681EC010F5F1F4F81E0881A9108DB
:1006C000A108B10881149104A104B104E1F6CE019E
:1006D000DF91CF911F910F91FF90EF90DF90CF901E
:1006E000BF90AF909F908F900895CF92DF92EF923E
:1006F000FF92CF93DF9340E05EEF62E070E083E033
:1007000090E20F9471818091FD21883509F068C0D5
:100710008091FE21823409F063C08091FF218934E9
:1007200009F05EC080910022863409F059C0909192
:10073000012280E0209102227C01E22A2AEF3FE799
:1007400041E050E060E070E881E090E00F942E839B
:10075000C6E0D0E06FEF0F94D6812197D9F7E81665
:10076000F90641F0DF91CF91FF90EF90DF90CF90AD
:100770000D949A87C12CD12C7601D0E2CFEFD09383
:10078000A706B701A60150586E4F7F4F83E090E255
:100790000F947181C1148EE7D80681E0E806F10458
:1007A00061F4C093FD21C093FE21C093FF21C0934B
:1007B0000022C0930122C093022221E043E050E2D4
:1007C000C701B6010F941B8682E0D80EE11CF11C14
:1007D000C11480E8D80681E0E806F10481F6C2CFB2
:1007E000DF91CF91FF90EF90DF90CF9008950F931E
:1007F000CF93DF931F92CDB7DEB72FB72983F8943D
:100800001BBEFC0108ED04BF608389818FBF0F9080
:10081000DF91CF910F910895CF92DF92EF92FF92E7
:100820000F931F93CF93DF93CDB7DEB72597CDBF3F
:10083000DEBF19821A821B821C8210920020109245
:100840000322109202208BEC8093520088E0809368
:1008500050008091510083FFFCCF82EC80935500C3
:1008600088E1809350008091510084FFFCCF64E0C8
:1008700080E490E00F94F783809150008E7F809306
:10088000500088ED84BF83E48093A20080E28093CF
:10089000A1068093A5060F94658788E18093520690
:1008A0000F945A888091780085FF05C08FEF809360
:1008B000780030EE01C038E180E990EDA3E0B0E0CF
:1008C00040E251E00097A105B10521F00197A1098F
:1008D000B10907C04093A706315080E990EDA3E02D
:1008E000B0E02091A10827FF08C02091A0082B317B
:1008F00021F45093002021E001C020E0A8952111AF
:1009000003C03111DFCF01C021E078942D830F9413
:100910007E8700E010E0B0E2DB2E68C1D092A7062F
:100920000F94F081A895813611F489E559C181347D
:1009300029F40F941682A0E0B0E073C0883439F433
:100940000F94F081A82F0F941682BB276AC08536BA
:1009500061F40F944C8101C0A8958091CF018770FC
:10096000D9F70F942D878DE03BC1823629F489E5B4
:100970000F94028282E0BDC0823489F40F94168203
:10098000C82E082F192F9D830F94F081AE014F5F61
:100990005F4F682F8C2D9D810F941E8221C1873659
:1009A00089F40F941682C82E082F192F9D830F9457
:1009B000F081AE014F5F5F4F682F8C2D9D810F94AA
:1009C000A08210C1823581F469817A818B819C81FA
:1009D000660F771F881F991F0F942781C82E892FB4
:1009E0000F9402828C2D49C0833629F40F94F08134
:1009F000082F10E0B8CF8334C9F40F94F081F82E9B
:100A0000E12C0E291F2989819A81B801880F991F2D
:100A10000F94598189819A81AB81BC810196A11D76
:100A2000B11D89839A83AB83BC839DCF8D36A9F496
:100A300089819A81AB81BC81811520E8920721E0F0
:100A4000A207B10508F0CBC0BC01CD01660F771F2E
:100A5000881F991F0F94828186CF843441F40F94AC
:100A6000F081682F89819A810F947D8608C0843631
:100A700091F489819A810F9457860F94028289811B
:100A80009A81AB81BC810196A11DB11D89839A8396
:100A9000AB83BC83A7C08C3629F40F94F0810F94EC
:100AA0003D8161CF823719F40F94418199C086341A
:100AB00011F480E007C08E3411F481E003C0813569
:100AC00021F482E00F9432818BC0803509F44BCF42
:100AD0008C3409F448CF853429F48DE00F940282D8
:100AE00020E081C0803711F483E57AC0843729F48F
:100AF0008BE70F94028280E073C0982F9857923052
:100B000010F0843519F40F94F0812DCF8335A1F4C2
:100B100088E50F94028282E40F9402828FE60F949C
:100B200002828FE60F94028284E70F9402828BE2A6
:100B30000F9402828BE254C0863529F481E30F942E
:100B4000028287E34DC0833741F484E40F9402822C
:100B500087E90F9402828EE143C08836F1F50F9445
:100B6000F081863431F128F4813441F18234E9F4A2
:100B700005C0813661F08437C1F40EC020E030E258
:100B800040E050E060E070E083E090E01EC020E0D4
:100B900030E841E050E016C020E030E841E050E0AD
:100BA00060E070E881E090E010C08FE30F94028273
:100BB000B5CE20E030E243E050E004C020E030E079
:100BC00043E050E060E070E0CB010F942E83C82E2C
:100BD000892F0F9402828C2D03C08B3119F08FE383
:100BE0000F94028221E02D830F94AF812D8121117A
:100BF00095CEF8940F9475830F94738710925206D4
:100C000080E28093A2068093A60688ED84BF1092AE
:100C1000A2000F9488870C94000080E090E0259655
:100C2000CDBFDEBFDF91CF911F910F91FF90EF906D
:100C3000DF90CF900895CF92DF92EF92FF92CF9303
:100C4000DF931F92CDB7DEB76B017C01CA01298308
:100C50000F945E812981C701B601222319F00F94F8
:100C6000888102C00F9482810F90DF91CF91FF9015
:100C7000EF90DF90CF900D94AF81EBECF1E021E0AD
:100C800030E088ED90E084BF208308958091CF010B
:100C900087FDFCCF08950F9446868091CF0181FF98
:100CA00005C086E38093CA010D943D860895EF92B6
:100CB000FF921F93CF93DF931F92CDB7DEB7192F0B
:100CC00089830F94468680ECE82EFF24F394898173
:100CD000F7018083812F90E08F71992781831282A1
:100CE00086E082870F943D86F70184810F90DF9123
:100CF000CF911F91FF90EF9008951F93CF93DF93B3
:100D00001F921F92CDB7DEB7192F69838A830F9484
:100D10004B86E0ECF1E093E392878A818083812F18
:100D200090E08F719927818312826981648385E3C2
:100D300082870F900F90DF91CF911F910D943D8688
:100D4000BF92CF92DF92EF92FF920F931F93CF93B8
:100D5000DF93EC018B017A011092C2010F94468659
:100D60006801CE0CDF1C26E0B22E12C0C093C00179
:100D70008D2F99278F7199278093C101B092CA0155
:100D80000F943D868091C401F80181938F012196D3
:100D90000C151D0559F7C701DF91CF911F910F91D8
:100DA000FF90EF90DF90CF90BF9008959F92AF9209
:100DB000BF92CF92DF92EF92FF920F931F93CF9348
:100DC000DF937B01B42EC52E9C012F713327D22EC9
:100DD0008C01021B130B0F944B860F94468683E302
:100DE0008093CA011092C1011092C201CB2DDC2D5B
:100DF00045E3A42E53E3952E20C0D092C001F70105
:100E000081917F018093C401219721F0D394F0E276
:100E1000DF1213C00093C001212F33272F71332716
:100E20002093C101A092CA010F943D86005E1F4F1E
:100E30000F9446869092CA01D12C2097F1F68B2D03
:100E40009C2DDF91CF911F910F91FF90EF90DF903C
:100E5000CF90BF90AF909F9008950F94468680E307
:100E6000E0ECF1E082870D943D861F920F920FB661
:100E70000F9211248F9380910020811103C081E093
:100E80008093002080910322811106C08091A008E8
:100E90008093012081E005C08091A0088093042206
:100EA00082E0809303228F910F900FBE0F901F90CE
:100EB00018951F920F920FB60F92112410920220D4
:100EC0000F900FBE0F901F90189588E0E0E4F6E0B9
:100ED0008183E0EAF8E080E18683178288E18483F9
:100EE00084E183830895E0EAF8E014821382168295
:100EF000178288E0E0E4F6E08283089588ED84BFFD
:100F00008FE1809380008091820080FDFCCF089566
:100F1000E0E8F0E080818C7F816098ED94BF808371
:100F2000089527E031E0FC012083318380E00895BB
:100F300082E00895CF92DF92EF92FF92CF93CFB7E6
:100F4000F894C12C80E8D82EEE24E394F12CC7014C
:100F5000B6010F9453810F94AF8182E0D80EE11C4B
:100F6000F11CC114D10483E0E806F10481F710926A
:100F7000CA01CFBF80E0CF91FF90EF90DF90CF907C
:100F80000895CF93CFB76130710523E082079105B3
:100F900050F4F8940F9453810F94AF811092CA01CA
:100FA000CFBF80E001C083E0CF910895CF93CFB74A
:100FB000F8940F945E810F9444810F94AF810F9445
:100FC00048810F94AF811092CA01CFBF80E0CF91CA
:100FD0000895CF93CFB76130710533E08307910552
:100FE00040F4F8940F941B861092CA01CFBF80E0A2
:100FF00001C083E0CF91089570588E4F9F4F0D949C
:10100000E98783FF06C0E0910E22F0910F2290E263
:10101000958382FF06C0E0911022F091112290E2A8
:10102000958381FF06C0E0911222F091132290E295
:10103000958380FF06C0E0911422F091152280E292
:1010400085830895E6E0F2E29FE384E0A191B19107
:101050009C9314968C9322E2EE30F207B9F7089530
:1010600060E076E0609306227093072240EA56E043
:10107000409308225093092280E896E080930A2248
:1010800090930B2220E636E020930C2230930D2221
:1010900060930E2270930F224093102250931122DE
:1010A00020931222309313228093142290931522BE
:1010B0000D942288CF93DF930F94308882E00F94B1
:1010C0000188C0E4D9E0C0936722D093682281E010
:1010D0008093662293E299831F82E0E4FAE0E09332
:1010E0006A22F0936B228093692283E081831782C6
:1010F00080E49CE98EA39FA384E088836EA17FA1F6
:1011000080E090E00F94D3882DEC3CEC4CEC5DE358
:101110000F9461890F94A7886F5F7F4F6AA77BA7A1
:10112000DF91CF9108951F920F920FB60F92112465
:101130000F900FBE0F901F9018951F920F920FB631
:101140000F9211240F900FBE0F901F90189598D0FA
:1011500088F09F5790F0B92F9927B751A0F0D1F0A0
:10116000660F771F881F991F1AF0BA95C9F712C02A
:10117000B13081F09FD0B1E008959CC0672F782FE7
:101180008827B85F39F0B93FCCF386957795679596
:10119000B395D9F73EF490958095709561957F4F02
:1011A0008F4F9F4F0895E89409C097FB3EF49095A8
:1011B0008095709561957F4F8F4F9F4F9923A9F030
:1011C000F92F96E9BB279395F695879577956795BF
:1011D000B795F111F8CFFAF4BB0F11F460FF1BC003
:1011E0006F5F7F4F8F4F9F4F16C0882311F096E996
:1011F00011C0772321F09EE8872F762F05C0662344
:1012000071F096E8862F70E060E02AF09A95660FFC
:10121000771F881FDAF7880F9695879597F90895B5
:1012200097F99F6780E870E060E008959FEF80EC99
:10123000089500240A94161617061806090608953C
:1012400000240A9412161306140605060895092EA2
:101250000394000C11F4882352F0BB0F40F4BF2B11
:1012600011F460FF04C06F5F7F4F8F4F9F4F089551
:1012700057FD9058440F551F59F05F3F71F0479547
:10128000880F97FB991F61F09F3F79F0879508952C
:10129000121613061406551FF2CF4695F1DF08C04B
:1012A000161617061806991FF1CF86957105610568
:1012B00008940895E894BB2766277727CB0197F910
:1012C00008950BD0C4CFB5DF28F0BADF18F095230E
:1012D00009F0A6CFABCF1124EECFCADFA0F3959FC4
:1012E000D1F3950F50E0551F629FF001729FBB270D
:1012F000F00DB11D639FAA27F00DB11DAA1F649FB9
:101300006627B00DA11D661F829F2227B00DA11D6B
:10131000621F739FB00DA11D621F839FA00D611DF1
:10132000221F749F3327A00D611D231F849F600D12
:10133000211D822F762F6A2F11249F5750408AF04B
:10134000E1F088234AF0EE0FFF1FBB1F661F771FD7
:10135000881F91505040A9F79E3F510570F060CF13
:10136000AACF5F3FECF3983EDCF3869577956795BF
:10137000B795F795E7959F5FC1F7FE2B880F911DF5
:0C1380009695879597F90895F894FFCF93
:0400000330000000C9
:00000001FF
